E0100000000000000000001 ECF-IF SWEDA               IF ST200            01.00.01  2009061608413800153485215000106MFD000010000014201009242010093001.26.11AC1704 01.00.00
E0200000000000000000001 IF ST200            53485215000106111072115110  S W E D A                               Rua Dona Brígida, 713 Vila Mariana - São Paulo - SP                                                                     2009061608413800000100000000001251609101
E1400000000000000000001 IF ST200            0100008000014720100924000000002617500000000000000V0000000000000V00000000261750N0000000000000                                         00000000000000
E1400000000000000000001 IF ST200            0100008100014820100924000000002617500000000000000V0000000000000V00000000261750N0000000000000                                         00000000000000
E1400000000000000000001 IF ST200            0100008200014920100924000000002617500000000000000V0000000000000V00000000261750S0000000000000                                         00000000000000
E1400000000000000000001 IF ST200            0100008300015120100924000000002617500000000000000V0000000000000V00000000261750S0000000000000                                         00000000000000
E1400000000000000000001 IF ST200            0100008400015320100924000000002000000000000000000V0000000000000V00000000200000S0000000000000                                         00000000000000
E1400000000000000000001 IF ST200            0100008500015520100924000000002000000000000000000V0000000000000V00000000200000N0000000000000                                         00000000000000
E1400000000000000000001 IF ST200            0100008600015720100924000000000000000000000000000V0000000000000V00000000000000S0000000000000                                         00000000000000
E1400000000000000000001 IF ST200            0100008700015820100924000000002000000000000000000V0000000000000V00000000200000S0000000000000                                         00000000000000
E1400000000000000000001 IF ST200            0100008800015920100924000000000001000000000000000V0000000000000V00000000000100N0000000000000                                         00000000000000
E1400000000000000000001 IF ST200            0100008900016020100924000000001000000000000000000V0000000000000V00000000100000S0000000000000                                         00000000000000
E1400000000000000000001 IF ST200            0100009000016120100924000000000001000000000000000V0000000000000V00000000000100S0000000000000                                         00000000000000
E1400000000000000000001 IF ST200            0100009100016220100924000000000001000000000000000V0000000000000V00000000000100N0000000000000                                         00000000000000
E1400000000000000000001 IF ST200            0100009200016420100924000000000100000000000000000V0000000000000V00000000010000N0000000000000                                         00000000000000
E1400000000000000000001 IF ST200            0100009300016620100924000000000003000000000000000V0000000000000V00000000000300N0000000000000                                         00000000000000
E1400000000000000000001 IF ST200            0100009400016820100924000000000002000000000000000V0000000000000V00000000000200N0000000000000                                         00000000000000
E1400000000000000000001 IF ST200            0100009500017120100924000000000001500000000000000V0000000000000V00000000000150N0000000000000                                         00000000000000
E1400000000000000000001 IF ST200            0100009600017220100924000000000001500000000000000V0000000000000V00000000000150N0000000000000                                         00000000000000
E1400000000000000000001 IF ST200            0100009700017420100924000000000000000000000000000V0000000000000V00000000000000S0000000000000                                         00000000000000
E1400000000000000000001 IF ST200            0100009800017520100924000000000001500000000000000V0000000000000V00000000000150N0000000000000                                         00000000000000
E1400000000000000000001 IF ST200            0100009900017720100924000000000001500000000000000V0000000000000V00000000000150N0000000000000                                         00000000000000
E1400000000000000000001 IF ST200            0100010000017820100924000000000120000000000000000V0000000000000V00000000012000N0000000000000                                         00000000000000
E1400000000000000000001 IF ST200            0100010100018120100924000000002981500000000000000V0000000000000V00000000298150N0000000000000                                         00000000000000
E1400000000000000000001 IF ST200            0100010200018320100924000000000000000000000000000V0000000000000V00000000000000S0000000000000                                         00000000000000
E1400000000000000000001 IF ST200            0100010300018420100924000000000000000000000000000V0000000000000V00000000000000S0000000000000                                         00000000000000
E1400000000000000000001 IF ST200            0100010400018520100924000000000000000000000000000V0000000000000V00000000000000S0000000000000                                         00000000000000
E1400000000000000000001 IF ST200            0100010500018620100924000000000000000000000000000V0000000000000V00000000000000S0000000000000                                         00000000000000
E1400000000000000000001 IF ST200            0100010600018720100924000000000000000000000000000V0000000000000V00000000000000S0000000000000                                         00000000000000
E1400000000000000000001 IF ST200            0100010700018820100924000000000000000000000000000V0000000000000V00000000000000S0000000000000                                         00000000000000
E1400000000000000000001 IF ST200            0100010800018920100924000000000000000000000000000V0000000000000V00000000000000S0000000000000                                         00000000000000
E1400000000000000000001 IF ST200            0100010900019020100924000000000000000000000000000V0000000000000V00000000000000S0000000000000                                         00000000000000
E1400000000000000000001 IF ST200            0100011000019120100924000000000000000000000000000V0000000000000V00000000000000S0000000000000                                         00000000000000
E1400000000000000000001 IF ST200            0100011100019220100924000000000010000000000000000V0000000000000V00000000001000N0000000000000                                         00000000000000
E1400000000000000000001 IF ST200            0100011200019320100924000000000000000000000000000V0000000000000V00000000000000S0000000000000                                         00000000000000
E1400000000000000000001 IF ST200            0100011300019420100924000000000033000000000000000V0000000000000V00000000003300N0000000000000                                         00000000000000
E1400000000000000000001 IF ST200            0100011400019520100924000000000033000000000000000V0000000000000V00000000003300N0000000000000                                         00000000000000
E1400000000000000000001 IF ST200            0100011500019620100924000000000033000000000000000V0000000000000V00000000003300N0000000000000                                         00000000000000
E1400000000000000000001 IF ST200            0100011600019720100924000000000000000000000000000V0000000000000V00000000000000S0000000000000                                         00000000000000
E1400000000000000000001 IF ST200            0100011700019820100924000000000033000000000000000V0000000000000V00000000003300N0000000000000                                         00000000000000
E1400000000000000000001 IF ST200            0100011800019920100924000000000000000000000000000V0000000000000V00000000000000S0000000000000                                         00000000000000
E1400000000000000000001 IF ST200            0100011900020020100924000000000000000000000000000V0000000000000V00000000000000S0000000000000                                         00000000000000
E1400000000000000000001 IF ST200            0100012000020120100924000000000000000000000000000V0000000000000V00000000000000S0000000000000                                         00000000000000
E1400000000000000000001 IF ST200            0100012100020220100924000000000000000000000000000V0000000000000V00000000000000S0000000000000                                         00000000000000
E1400000000000000000001 IF ST200            0100012200020320100924000000000000000000000000000V0000000000000V00000000000000S0000000000000                                         00000000000000
E1400000000000000000001 IF ST200            0100012300020420100924000000000000000000000000000V0000000000000V00000000000000S0000000000000                                         00000000000000
E1400000000000000000001 IF ST200            0100012400020520100924000000000033000000000000300V0000000000000V00000000003000N0000000000000D                                        00000000000000
E1400000000000000000001 IF ST200            0100012500020720100924000000000033000000000000000V0000000000000V00000000003300N0000000000000                                         00000000000000
E1400000000000000000001 IF ST200            0100012600020820100924000000000033000000000000000V0000000000000V00000000003300N0000000000000                                         00000000000000
E1400000000000000000001 IF ST200            0100012700020920100924000000000033000000000000000V0000000000000V00000000003300N0000000000000                                         00000000000000
E1400000000000000000001 IF ST200            0100012800021020100924000000000027000000000000000V0000000000000V00000000002700N0000000000000                                         00000000000000
E1400000000000000000001 IF ST200            0100012900021120100924000000000027000000000000000V0000000000000V00000000002700N0000000000000                                         00000000000000
E1400000000000000000001 IF ST200            0100013000021420100925000000000029800000000000000V0000000000000V00000000002980N0000000000000                                         00000000000000
E1400000000000000000001 IF ST200            0100013100021620100925000000000029800000000000000V0000000000000V00000000002980N0000000000000                                         00000000000000
E1400000000000000000001 IF ST200            0100013200021820100925000000000029800000000000000V0000000000000V00000000002980N0000000000000                                         00000000000000
E1400000000000000000001 IF ST200            0100013300022120100925000000000029800000000000000V0000000000000V00000000002980N0000000000000                                         00000000000000
E1400000000000000000001 IF ST200            0100013400022320100925000000000029800000000000000V0000000000000V00000000002980N0000000000000                                         00000000000000
E1400000000000000000001 IF ST200            0100013500022520100925000000000029800000000000000V0000000000000V00000000002980N0000000000000                                         00000000000000
E1400000000000000000001 IF ST200            0100013600022620100925000000000029800000000000000V0000000000000V00000000002980N0000000000000                                         00000000000000
E1400000000000000000001 IF ST200            0100013700022720100925000000000000000000000000000V0000000000000V00000000000000S0000000000000                                         00000000000000
E1400000000000000000001 IF ST200            0100013800022820100925000000000029800000000000000V0000000000000V00000000002980N0000000000000                                         00000000000000
E1400000000000000000001 IF ST200            0100013900023020100925000000000000000000000000000V0000000000000V00000000000000S0000000000000                                         00000000000000
E1400000000000000000001 IF ST200            0100014000023120100925000000000000000000000000000V0000000000000V00000000000000S0000000000000                                         00000000000000
E1400000000000000000001 IF ST200            0100014100023220100925000000000001000000000000000V0000000000000V00000000000100N0000000000000                                         00000000000000
E1400000000000000000001 IF ST200            0100014200023420100925000000000000000000000000000V0000000000000V00000000000000S0000000000000                                         00000000000000
E1400000000000000000001 IF ST200            0100014300023620100925000000000002000000000000000V0000000000000V00000000000200N0000000000000                                         00000000000000
E1400000000000000000001 IF ST200            0100014400023820100925000000000005800000000000000V0000000000000V00000000000580N0000000000000                                         00000000000000
E1400000000000000000001 IF ST200            0100014500024020100925000000000005800000000000000V0000000000000V00000000000580N0000000000000                                         00000000000000
E1400000000000000000001 IF ST200            0100014600024320100925000000000005800000000000000V0000000000000V00000000000580N0000000000000                                         00000000000000
E1400000000000000000001 IF ST200            0100014700024720100926000000000000000000000000000V0000000000000V00000000000000S0000000000000                                         00000000000000
E1400000000000000000001 IF ST200            0100014800024820100926000000000000000000000000000V0000000000000V00000000000000S0000000000000                                         00000000000000
E1400000000000000000001 IF ST200            0100014900024920100926000000000000000000000000000V0000000000000V00000000000000S0000000000000                                         00000000000000
E1400000000000000000001 IF ST200            0100015000025020100926000000000000000000000000000V0000000000000V00000000000000S0000000000000                                         00000000000000
E1400000000000000000001 IF ST200            0100015100025120100926000000000054000000000000000V0000000000000V00000000005400N0000000000000                                         00000000000000
E1400000000000000000001 IF ST200            0100015200025220100926000000000054000000000000000V0000000000000V00000000005400N0000000000000                                         00000000000000
E1400000000000000000001 IF ST200            0100015300025320100926000000000054000000000000000V0000000000000V00000000005400N0000000000000                                         00000000000000
E1400000000000000000001 IF ST200            0100015400025420100926000000000066000000000000000V0000000000000V00000000006600N0000000000000                                         00000000000000
E1400000000000000000001 IF ST200            0100015500025520100926000000000066000000000000000V0000000000000V00000000006600N0000000000000                                         00000000000000
E1400000000000000000001 IF ST200            0100015600025620100926000000000054000000000000000V0000000000000V00000000005400N0000000000000                                         00000000000000
E1400000000000000000001 IF ST200            0100015700025720100926000000000000000000000000000V0000000000000V00000000000000S0000000000000                                         00000000000000
E1400000000000000000001 IF ST200            0100015800025820100926000000000001000000000000000V0000000000000V00000000000100S0000000000000                                         00000000000000
E1400000000000000000001 IF ST200            0100015900026020100926000000000001000000000000000V0000000000000V00000000000100S0000000000000                                         00000000000000
E1400000000000000000001 IF ST200            0100016000027220100928000000000001000000000000000V0000000000000V00000000000100S0000000000000                                         00000000000000
E1400000000000000000001 IF ST200            0100016100027420100928000000000001000000000000000V0000000000000V00000000000100S0000000000000                                         00000000000000
E1400000000000000000001 IF ST200            0100016200028120100930000000000000000000000000000V0000000000000V00000000000000S0000000000000                                         00000000000000
E1400000000000000000001 IF ST200            0100016300028320100930000000000001000000000000000V0000000000000V00000000000100N0000000000000                                         00000000000000
E1400000000000000000001 IF ST200            0100016400028520100930000000000001000000000000000V0000000000000V00000000000100N0000000000000                                         00000000000000
E1400000000000000000001 IF ST200            0100016500028720100930000000002617250000000000000V0000000000000V00000000261725N0000000000000                                         00000000000000
E1400000000000000000001 IF ST200            0100016600029020100930000000000000000000000000000V0000000000000V00000000000000S0000000000000                                         00000000000000
E1400000000000000000001 IF ST200            0100016700029120100930000000000295800000000000000V0000000000000V00000000029580N0000000000000                                         00000000000000
E1400000000000000000001 IF ST200            0100016800029320100930000000000000000000000000000V0000000000000V00000000000000S0000000000000                                         00000000000000
E1400000000000000000001 IF ST200            0100016900029420100930000000000218200000000000000V0000000000000V00000000021820N0000000000000                                         00000000000000
E1400000000000000000001 IF ST200            0100017000029520100930000000000042600000000000000V0000000000000V00000000004260N0000000000000                                         00061363944304
E1400000000000000000001 IF ST200            0100017100029620100930000000000042600000000000000V0000000000000V00000000004260N0000000000000                                         00011111111111
E1400000000000000000001 IF ST200            0100017200029720100930000000000042600000000000000V0000000000000V00000000004260N0000000000000                                         00022222222222
E1400000000000000000001 IF ST200            0100017300029820100930000000000146600000000004660V0000000000000V00000000010000N0000000000000D                                        00022222222222
E1400000000000000000001 IF ST200            0100017400030020100930000000000042600000000000213V0000000000000V00000000004047N0000000000000D                                        00022222222222
E1400000000000000000001 IF ST200            0100017500030120100930000000000042600000000000000V0000000000740V00000000005000N0000000000000A                                        00000000000000
E1400000000000000000001 IF ST200            0100017600030320100930000000000000000000000000000V0000000000000V00000000000000S0000000000000                                         00000000000000
E1400000000000000000001 IF ST200            0100017700030420100930000000000033000000000000000V0000000000000V00000000003300N0000000000000                                         00000000000000
E1400000000000000000001 IF ST200            0100017800030520100930000000000027000000000000000V0000000000000V00000000002700N0000000000000                                         00000000000000
E1400000000000000000001 IF ST200            0100017900030620100930000000000060000000000000000V0000000000000V00000000006000N0000000000000                                         00000000000000
E1400000000000000000001 IF ST200            0100018000030720100930000000000100000000000000000V0000000000000V00000000010000N0000000000000                                         00000000000000
E1400000000000000000001 IF ST200            0100018100031420100930000000000000000000000000000V0000000000000V00000000000000S0000000000000                                         00000000000000
E1400000000000000000001 IF ST200            0100018200031520100930000000000133000000000000000V0000000000000V00000000013300N0000000000000                                         00000000000000
E1400000000000000000001 IF ST200            0100018300031620100930000000000000000000000000000V0000000000000V00000000000000S0000000000000                                         00000000000000
E1400000000000000000001 IF ST200            0100018400031720100930000000000133000000000000000V0000000000000V00000000013300N0000000000000                                         00000000000000
E1400000000000000000001 IF ST200            0100018500031820100930000000000133000000000000000V0000000000000V00000000013300N0000000000000                                         00011111111111
E1400000000000000000001 IF ST200            0100018600031920100930000000000133000000000000000V0000000000000V00000000013300N0000000000000                                         00061363944304
E1400000000000000000001 IF ST200            0100018700032020100930000000000133000000000003300V0000000000000V00000000010000N0000000000000D                                        00061363944304
E1400000000000000000001 IF ST200            0100018800032120100930000000000133000000000001330V0000000000000V00000000011970N0000000000000D                                        00061363944304
E1400000000000000000001 IF ST200            0100018900032220100930000000001302600000000000000V0000000000000V00000000130260N0000000000000                                         00061363944304
E1400000000000000000001 IF ST200            0100019000032520100930000000000004000000000000000V0000000000000V00000000000400N0000000000000                                         00061363944304
E1400000000000000000001 IF ST200            0100019100032620100930000000001533000000000000000V0000000000000V00000000153300N0000000000000                                         00061363944304
E1400000000000000000001 IF ST200            0100019200032820100930000000000133000000000003300V0000000000000V00000000010000N0000000000000D                                        00061363944304
E1400000000000000000001 IF ST200            0100019300032920100930000000000133000000000000000V0000000000000V00000000013300N0000000000000                                         00011111111111
E1400000000000000000001 IF ST200            0100019400033020100930000000000133000000000001064V0000000000000V00000000012236N0000000000000D                                        00011111111111
E1400000000000000000001 IF ST200            0100019500033120100930000000000133000000000000000V0000000001700V00000000015000N0000000000000A                                        00011111111111
E1400000000000000000001 IF ST200            0100019600033320100930000000000000000000000000000V0000000000000V00000000000000S0000000000000                                         00011111111111
E1400000000000000000001 IF ST200            0100019700033420100930000000000000000000000000000V0000000000000V00000000000000S0000000000000                                         00011111111111
E1400000000000000000001 IF ST200            0100019800033520100930000000000060000000000000000V0000000000000V00000000006000N0000000000000                                         00011111111111
E1400000000000000000001 IF ST200            0100019900033620100930000000000100000000000000000V0000000000000V00000000010000N0000000000000                                         00011111111111
E1500000000000000000001 IF ST200            0100014700008000112345         PRODUTO TESTE                                                                                       0001000UN 00261750000000000000000000000000261750N1     N000000000000000000000000000000000T32
E1500000000000000000001 IF ST200            0100014800008100112345         PRODUTO TESTE                                                                                       0001000UN 00261750000000000000000000000000261750N1     N000000000000000000000000000000000T32
E1500000000000000000001 IF ST200            0100014900008200112345         PRODUTO TESTE                                                                                       0001000UN 00261750000000000000000000000000261750N1     N000000000000000000000000000000000T32
E1500000000000000000001 IF ST200            0100015100008300112345         PRODUTO TESTE                                                                                       0001000UN 00261750000000000000000000000000261750N1     N000000000000000000000000000000000T32
E1500000000000000000001 IF ST200            0100015300008400112345         PRODUTO TESTE                                                                                       0001000UN 00200000000000000000000000000000200000N1     N000000000000000000000000000000000T32
E1500000000000000000001 IF ST200            0100015500008500112345         PRODUTO TESTE                                                                                       0001000UN 00200000000000000000000000000000200000N1     N000000000000000000000000000000000T32
E1500000000000000000001 IF ST200            0100015800008700112345         PRODUTO TESTE                                                                                       0001000UN 00200000000000000000000000000000200000N1     N000000000000000000000000000000000T32
E1500000000000000000001 IF ST200            0100015900008800112345         PRODUTO TESTE                                                                                       0001000UN 00000100000000000000000000000000000100N1     N000000000000000000000000000000000T32
E1500000000000000000001 IF ST200            0100016000008900112345         PRODUTO TESTE                                                                                       0001000UN 00100000000000000000000000000000100000N1     N000000000000000000000000000000000T32
E1500000000000000000001 IF ST200            0100016100009000112345         PRODUTO TESTE                                                                                       0001000UN 00000100000000000000000000000000000100N1     N000000000000000000000000000000000T32
E1500000000000000000001 IF ST200            0100016200009100112345         PRODUTO TESTE                                                                                       0001000UN 00000100000000000000000000000000000100N1     N000000000000000000000000000000000T32
E1500000000000000000001 IF ST200            0100016400009200112345         PRODUTO TESTE                                                                                       0001000UN 00010000000000000000000000000000010000N1     N000000000000000000000000000000000T32
E1500000000000000000001 IF ST200            0100016600009300112345         PRODUTO TESTE                                                                                       0001000UN 00000300000000000000000000000000000300N1     N000000000000000000000000000000000T32
E1500000000000000000001 IF ST200            0100016800009400112345         PRODUTO TESTE                                                                                       0001000UN 00000200000000000000000000000000000200N1     N000000000000000000000000000000000T32
E1500000000000000000001 IF ST200            010001710000950010001190000009 BORRACHA PLASTICA - TK NEON                                                                         0001000UN 0000015000000000000000000000000000015000T1700N000000000000000000000000000000000T32
E1500000000000000000001 IF ST200            010001720000960010001190000009 BORRACHA PLASTICA - TK NEON                                                                         0001000UN 0000015000000000000000000000000000015000T1700N000000000000000000000000000000000T32
E1500000000000000000001 IF ST200            010001740000970010001190000009 BORRACHA PLASTICA - TK NEON                                                                         0001000UN 0000015000000000000000000000000000015000T1700N000000000000000000000000000000000T32
E1500000000000000000001 IF ST200            010001750000980010001190000009 BORRACHA PLASTICA - TK NEON                                                                         0001000UN 0000015000000000000000000000000000015000T1700N000000000000000000000000000000000T32
E1500000000000000000001 IF ST200            010001770000990010001190000009 BORRACHA PLASTICA - TK NEON                                                                         0001000UN 0000015000000000000000000000000000015000T1700N000000000000000000000000000000000T32
E1500000000000000000001 IF ST200            010001780001000010001190000009 BORRACHA PLASTICA - TK NEON                                                                         0080000UN 0000015000000000000000000000000001200000T1700N000000000000000000000000000000000T32
E1500000000000000000001 IF ST200            010001810001010010001190000009 BORRACHA PLASTICA - TK NEON                                                                         0001000UN 0000015000000000000000000000000000015000T1700N000000000000000000000000000000000T32
E1500000000000000000001 IF ST200            010001810001010020407011150500 FITA P/MAQUINA ELETRICA PERSON                                                                      0100000UN 0000298000000000000000000000000029800000T1700N000000000000000000000000000000000T32
E1500000000000000000001 IF ST200            010001920001110013011010827133 TECIDO EM HELANCA                                                                                   0010000UN 0000010000000000000000000000000000100000T1700N000000000000000000000000000000000T32
E1500000000000000000001 IF ST200            010001940001130013011010827133 TECIDO EM HELANCA                                                                                   0010000UN 0000010000000000000000000000000000100000T1700N000000000000000000000000000000000T32
E1500000000000000000001 IF ST200            010001940001130020312011604499 SULFATO DE ALUMINIO                                                                                 0010000UN 0000023000000000000000000000000000230000T1700N000000000000000000000000000000000T32
E1500000000000000000001 IF ST200            010001950001140013011010827133 TECIDO EM HELANCA                                                                                   0010000UN 0000010000000000000000000000000000100000T1700N000000000000000000000000000000000T32
E1500000000000000000001 IF ST200            010001950001140020312011604499 SULFATO DE ALUMINIO                                                                                 0010000UN 0000023000000000000000000000000000230000T1700N000000000000000000000000000000000T32
E1500000000000000000001 IF ST200            010001960001150013011010827133 TECIDO EM HELANCA                                                                                   0010000UN 0000010000000000000000000000000000100000T1700N000000000000000000000000000000000T32
E1500000000000000000001 IF ST200            010001960001150020312011604499 SULFATO DE ALUMINIO                                                                                 0010000UN 0000023000000000000000000000000000230000T1700N000000000000000000000000000000000T32
E1500000000000000000001 IF ST200            010001970001160013011010827133 TECIDO EM HELANCA                                                                                   0010000UN 0000010000000000000000000000000000100000T1700N000000000000000000000000000000000T32
E1500000000000000000001 IF ST200            010001970001160020312011604499 SULFATO DE ALUMINIO                                                                                 0010000UN 0000023000000000000000000000000000230000T1700N000000000000000000000000000000000T32
E1500000000000000000001 IF ST200            010001980001170013011010827133 TECIDO EM HELANCA                                                                                   0010000UN 0000010000000000000000000000000000100000T1700N000000000000000000000000000000000T32
E1500000000000000000001 IF ST200            010001980001170020312011604499 SULFATO DE ALUMINIO                                                                                 0010000UN 0000023000000000000000000000000000230000T1700N000000000000000000000000000000000T32
E1500000000000000000001 IF ST200            010002030001220013011010827133 TECIDO EM HELANCA                                                                                   0010000UN 0000010000000000000000000000000000100000T1700N000000000000000000000000000000000T32
E1500000000000000000001 IF ST200            010002030001220020312011604499 SULFATO DE ALUMINIO                                                                                 0010000UN 0000023000000000000000000000000000230000T1700N000000000000000000000000000000000T32
E1500000000000000000001 IF ST200            010002040001230013011010827133 TECIDO EM HELANCA                                                                                   0010000UN 0000010000000000000000000000000000100000T1700N000000000000000000000000000000000T32
E1500000000000000000001 IF ST200            010002040001230020312011604499 SULFATO DE ALUMINIO                                                                                 0010000UN 0000023000000000000000000000000000230000T1700N000000000000000000000000000000000T32
E1500000000000000000001 IF ST200            010002050001240013011010827133 TECIDO EM HELANCA                                                                                   0010000UN 0000010000000000000000000000000000100000T1700N000000000000000000000000000000000T32
E1500000000000000000001 IF ST200            010002050001240020312011604499 SULFATO DE ALUMINIO                                                                                 0010000UN 0000023000000000000000000000000000230000T1700N000000000000000000000000000000000T32
E1500000000000000000001 IF ST200            010002070001250013011010827133 TECIDO EM HELANCA                                                                                   0010000UN 0000010000000000000000000000000000100000T1700N000000000000000000000000000000000T32
E1500000000000000000001 IF ST200            010002070001250020312011604499 SULFATO DE ALUMINIO                                                                                 0010000UN 0000023000000000000000000000000000230000T1700N000000000000000000000000000000000T32
E1500000000000000000001 IF ST200            010002080001260013011010827133 TECIDO EM HELANCA                                                                                   0010000UN 0000010000000000000000000000000000100000T1700N000000000000000000000000000000000T32
E1500000000000000000001 IF ST200            010002080001260020312011604499 SULFATO DE ALUMINIO                                                                                 0010000UN 0000023000000000000000000000000000230000T1700N000000000000000000000000000000000T32
E1500000000000000000001 IF ST200            010002090001270013011010827133 TECIDO EM HELANCA                                                                                   0010000UN 0000010000000000000000000000000000100000T1700N000000000000000000000000000000000T32
E1500000000000000000001 IF ST200            010002090001270020312011604499 SULFATO DE ALUMINIO                                                                                 0010000UN 0000023000000000000000000000000000230000T1700N000000000000000000000000000000000T32
E1500000000000000000001 IF ST200            010002100001280010001170000005 BORRACHA PLASTICA - TK PEQUENA                                                                      0010000UN 0000007000000000000000000000000000070000T1700N000000000000000000000000000000000T32
E1500000000000000000001 IF ST200            010002100001280020001180000002 BORRACHA PLASTICA - TK GRANDE                                                                       0010000UN 0000020000000000000000000000000000200000T1700N000000000000000000000000000000000T32
E1500000000000000000001 IF ST200            010002110001290010001170000005 BORRACHA PLASTICA - TK PEQUENA                                                                      0010000UN 0000007000000000000000000000000000070000T1700N000000000000000000000000000000000T32
E1500000000000000000001 IF ST200            010002110001290020001180000002 BORRACHA PLASTICA - TK GRANDE                                                                       0010000UN 0000020000000000000000000000000000200000T1700N000000000000000000000000000000000T32
E1500000000000000000001 IF ST200            010002140001300010407011150500 FITA P/MAQUINA ELETRICA PERSON                                                                      0001000UN 0000298000000000000000000000000000298000T1700N000000000000000000000000000000000T32
E1500000000000000000001 IF ST200            010002160001310010407011150500 FITA P/MAQUINA ELETRICA PERSON                                                                      0001000UN 0000298000000000000000000000000000298000T1700N000000000000000000000000000000000T32
E1500000000000000000001 IF ST200            010002180001320010407011150500 FITA P/MAQUINA ELETRICA PERSON                                                                      0001000UN 0000298000000000000000000000000000298000T1700N000000000000000000000000000000000T32
E1500000000000000000001 IF ST200            010002210001330010407011150500 FITA P/MAQUINA ELETRICA PERSON                                                                      0001000UN 0000298000000000000000000000000000298000T1700N000000000000000000000000000000000T32
E1500000000000000000001 IF ST200            010002230001340010407011150500 FITA P/MAQUINA ELETRICA PERSON                                                                      0001000UN 0000298000000000000000000000000000298000T1700N000000000000000000000000000000000T32
E1500000000000000000001 IF ST200            010002250001350010407011150500 FITA P/MAQUINA ELETRICA PERSON                                                                      0001000UN 0000298000000000000000000000000000298000T1700N000000000000000000000000000000000T32
E1500000000000000000001 IF ST200            010002260001360010407011150500 FITA P/MAQUINA ELETRICA PERSON                                                                      0001000UN 0000298000000000000000000000000000298000T1700N000000000000000000000000000000000T32
E1500000000000000000001 IF ST200            010002280001380010407011150500 FITA P/MAQUINA ELETRICA PERSON                                                                      0001000UN 0000298000000000000000000000000000298000T1700N000000000000000000000000000000000T32
E1500000000000000000001 IF ST200            010002300001390010407011150500 FITA P/MAQUINA ELETRICA PERSON                                                                      0001000UN 0000298000000000000000000000000000298000T1700N000000000000000000000000000000000T32
E1500000000000000000001 IF ST200            010002310001400010407011150500 FITA P/MAQUINA ELETRICA PERSON                                                                      0001000UN 0000298000000000000000000000000000298000T1700N000000000000000000000000000000000T32
E1500000000000000000001 IF ST200            0100023200014100112345         PRODUTO TESTE                                                                                       0001000UN 00000100000000000000000000000000000100N1     N000000000000000000000000000000000T32
E1500000000000000000001 IF ST200            010002340001420011603041234428 FERRO GALVANIZADO DE 1/2" C/3M                                                                      0001000UN 0001330000000000000000000000000001330000T1700N000000000000000000000000000000000T32
E1500000000000000000001 IF ST200            010002360001430010001180000002 BORRACHA PLASTICA - TK GRANDE                                                                       0001000UN 0000020000000000000000000000000000020000T1700N000000000000000000000000000000000T32
E1500000000000000000001 IF ST200            010002380001440010001234567898 FITA PAPEL CREPE                                                                                    0001000UN 0000058000000000000000000000000000058000T1700N000000000000000000000000000000000T32
E1500000000000000000001 IF ST200            010002400001450010001234567898 FITA PAPEL CREPE                                                                                    0001000UN 0000058000000000000000000000000000058000T1700N000000000000000000000000000000000T32
E1500000000000000000001 IF ST200            010002430001460010001234567898 FITA PAPEL CREPE                                                                                    0001000UN 0000058000000000000000000000000000058000T1700N000000000000000000000000000000000T32
E1500000000000000000001 IF ST200            010002470001470010001170000005 BORRACHA PLASTICA - TK PEQUENA                                                                      0010000UN 0000007000000000000000000000000000070000T1700N000000000000000000000000000000000T32
E1500000000000000000001 IF ST200            010002470001470020001180000002 BORRACHA PLASTICA - TK GRANDE                                                                       0010000UN 0000020000000000000000000000000000200000T1700N000000000000000000000000000000000T32
E1500000000000000000001 IF ST200            010002470001470030001190000009 BORRACHA PLASTICA - TK NEON                                                                         0010000UN 0000015000000000000000000000000000150000T1700N000000000000000000000000000000000T32
E1500000000000000000001 IF ST200            010002470001470040001234567898 FITA PAPEL CREPE                                                                                    0010000UN 0000058000000000000000000000000000580000T1700N000000000000000000000000000000000T32
E1500000000000000000001 IF ST200            010002470001470050001170000005 BORRACHA PLASTICA - TK PEQUENA                                                                      0010000UN 0000007000000000000000000000000000070000T1700N000000000000000000000000000000000T32
E1500000000000000000001 IF ST200            010002470001470060001180000002 BORRACHA PLASTICA - TK GRANDE                                                                       0010000UN 0000020000000000000000000000000000200000T1700N000000000000000000000000000000000T32
E1500000000000000000001 IF ST200            010002470001470070001170000005 BORRACHA PLASTICA - TK PEQUENA                                                                      0010000UN 0000007000000000000000000000000000070000T1700N000000000000000000000000000000000T32
E1500000000000000000001 IF ST200            010002470001470080001180000002 BORRACHA PLASTICA - TK GRANDE                                                                       0010000UN 0000020000000000000000000000000000200000T1700N000000000000000000000000000000000T32
E1500000000000000000001 IF ST200            010002480001480010001170000005 BORRACHA PLASTICA - TK PEQUENA                                                                      0010000UN 0000007000000000000000000000000000070000T1700N000000000000000000000000000000000T32
E1500000000000000000001 IF ST200            010002480001480020001180000002 BORRACHA PLASTICA - TK GRANDE                                                                       0010000UN 0000020000000000000000000000000000200000T1700N000000000000000000000000000000000T32
E1500000000000000000001 IF ST200            010002480001480030001190000009 BORRACHA PLASTICA - TK NEON                                                                         0010000UN 0000015000000000000000000000000000150000T1700N000000000000000000000000000000000T32
E1500000000000000000001 IF ST200            010002480001480040001234567898 FITA PAPEL CREPE                                                                                    0010000UN 0000058000000000000000000000000000580000T1700N000000000000000000000000000000000T32
E1500000000000000000001 IF ST200            010002480001480050001170000005 BORRACHA PLASTICA - TK PEQUENA                                                                      0010000UN 0000007000000000000000000000000000070000T1700N000000000000000000000000000000000T32
E1500000000000000000001 IF ST200            010002480001480060001180000002 BORRACHA PLASTICA - TK GRANDE                                                                       0010000UN 0000020000000000000000000000000000200000T1700N000000000000000000000000000000000T32
E1500000000000000000001 IF ST200            010002480001480070001170000005 BORRACHA PLASTICA - TK PEQUENA                                                                      0010000UN 0000007000000000000000000000000000070000T1700N000000000000000000000000000000000T32
E1500000000000000000001 IF ST200            010002480001480080001180000002 BORRACHA PLASTICA - TK GRANDE                                                                       0010000UN 0000020000000000000000000000000000200000T1700N000000000000000000000000000000000T32
E1500000000000000000001 IF ST200            010002490001490010001170000005 BORRACHA PLASTICA - TK PEQUENA                                                                      0010000UN 0000007000000000000000000000000000070000T1700N000000000000000000000000000000000T32
E1500000000000000000001 IF ST200            010002490001490020001180000002 BORRACHA PLASTICA - TK GRANDE                                                                       0010000UN 0000020000000000000000000000000000200000T1700N000000000000000000000000000000000T32
E1500000000000000000001 IF ST200            010002490001490030001190000009 BORRACHA PLASTICA - TK NEON                                                                         0010000UN 0000015000000000000000000000000000150000T1700N000000000000000000000000000000000T32
E1500000000000000000001 IF ST200            010002490001490040001234567898 FITA PAPEL CREPE                                                                                    0010000UN 0000058000000000000000000000000000580000T1700N000000000000000000000000000000000T32
E1500000000000000000001 IF ST200            010002490001490050001170000005 BORRACHA PLASTICA - TK PEQUENA                                                                      0010000UN 0000007000000000000000000000000000070000T1700N000000000000000000000000000000000T32
E1500000000000000000001 IF ST200            010002490001490060001180000002 BORRACHA PLASTICA - TK GRANDE                                                                       0010000UN 0000020000000000000000000000000000200000T1700N000000000000000000000000000000000T32
E1500000000000000000001 IF ST200            010002490001490070001170000005 BORRACHA PLASTICA - TK PEQUENA                                                                      0010000UN 0000007000000000000000000000000000070000T1700N000000000000000000000000000000000T32
E1500000000000000000001 IF ST200            010002490001490080001180000002 BORRACHA PLASTICA - TK GRANDE                                                                       0010000UN 0000020000000000000000000000000000200000T1700N000000000000000000000000000000000T32
E1500000000000000000001 IF ST200            010002500001500010001170000005 BORRACHA PLASTICA - TK PEQUENA                                                                      0010000UN 0000007000000000000000000000000000070000T1700N000000000000000000000000000000000T32
E1500000000000000000001 IF ST200            010002500001500020001180000002 BORRACHA PLASTICA - TK GRANDE                                                                       0010000UN 0000020000000000000000000000000000200000T1700N000000000000000000000000000000000T32
E1500000000000000000001 IF ST200            010002500001500030001170000005 BORRACHA PLASTICA - TK PEQUENA                                                                      0010000UN 0000007000000000000000000000000000070000T1700N000000000000000000000000000000000T32
E1500000000000000000001 IF ST200            010002500001500040001180000002 BORRACHA PLASTICA - TK GRANDE                                                                       0010000UN 0000020000000000000000000000000000200000T1700N000000000000000000000000000000000T32
E1500000000000000000001 IF ST200            010002510001510010001170000005 BORRACHA PLASTICA - TK PEQUENA                                                                      0010000UN 0000007000000000000000000000000000070000T1700N000000000000000000000000000000000T32
E1500000000000000000001 IF ST200            010002510001510020001180000002 BORRACHA PLASTICA - TK GRANDE                                                                       0010000UN 0000020000000000000000000000000000200000T1700N000000000000000000000000000000000T32
E1500000000000000000001 IF ST200            010002510001510030001170000005 BORRACHA PLASTICA - TK PEQUENA                                                                      0010000UN 0000007000000000000000000000000000070000T1700N000000000000000000000000000000000T32
E1500000000000000000001 IF ST200            010002510001510040001180000002 BORRACHA PLASTICA - TK GRANDE                                                                       0010000UN 0000020000000000000000000000000000200000T1700N000000000000000000000000000000000T32
E1500000000000000000001 IF ST200            010002520001520010001170000005 BORRACHA PLASTICA - TK PEQUENA                                                                      0010000UN 0000007000000000000000000000000000070000T1700N000000000000000000000000000000000T32
E1500000000000000000001 IF ST200            010002520001520020001180000002 BORRACHA PLASTICA - TK GRANDE                                                                       0010000UN 0000020000000000000000000000000000200000T1700N000000000000000000000000000000000T32
E1500000000000000000001 IF ST200            010002520001520030001170000005 BORRACHA PLASTICA - TK PEQUENA                                                                      0010000UN 0000007000000000000000000000000000070000T1700N000000000000000000000000000000000T32
E1500000000000000000001 IF ST200            010002520001520040001180000002 BORRACHA PLASTICA - TK GRANDE                                                                       0010000UN 0000020000000000000000000000000000200000T1700N000000000000000000000000000000000T32
E1500000000000000000001 IF ST200            010002530001530010001170000005 BORRACHA PLASTICA - TK PEQUENA                                                                      0010000UN 0000007000000000000000000000000000070000T1700N000000000000000000000000000000000T32
E1500000000000000000001 IF ST200            010002530001530020001180000002 BORRACHA PLASTICA - TK GRANDE                                                                       0010000UN 0000020000000000000000000000000000200000T1700N000000000000000000000000000000000T32
E1500000000000000000001 IF ST200            010002530001530030001170000005 BORRACHA PLASTICA - TK PEQUENA                                                                      0010000UN 0000007000000000000000000000000000070000T1700N000000000000000000000000000000000T32
E1500000000000000000001 IF ST200            010002530001530040001180000002 BORRACHA PLASTICA - TK GRANDE                                                                       0010000UN 0000020000000000000000000000000000200000T1700N000000000000000000000000000000000T32
E1500000000000000000001 IF ST200            010002540001540013011010827133 TECIDO EM HELANCA                                                                                   0010000UN 0000010000000000000000000000000000100000T1700N000000000000000000000000000000000T32
E1500000000000000000001 IF ST200            010002540001540020312011604499 SULFATO DE ALUMINIO                                                                                 0010000UN 0000023000000000000000000000000000230000T1700N000000000000000000000000000000000T32
E1500000000000000000001 IF ST200            010002540001540033011010827133 TECIDO EM HELANCA                                                                                   0010000UN 0000010000000000000000000000000000100000T1700N000000000000000000000000000000000T32
E1500000000000000000001 IF ST200            010002540001540040312011604499 SULFATO DE ALUMINIO                                                                                 0010000UN 0000023000000000000000000000000000230000T1700N000000000000000000000000000000000T32
E1500000000000000000001 IF ST200            010002550001550013011010827133 TECIDO EM HELANCA                                                                                   0010000UN 0000010000000000000000000000000000100000T1700N000000000000000000000000000000000T32
E1500000000000000000001 IF ST200            010002550001550020312011604499 SULFATO DE ALUMINIO                                                                                 0010000UN 0000023000000000000000000000000000230000T1700N000000000000000000000000000000000T32
E1500000000000000000001 IF ST200            010002550001550033011010827133 TECIDO EM HELANCA                                                                                   0010000UN 0000010000000000000000000000000000100000T1700N000000000000000000000000000000000T32
E1500000000000000000001 IF ST200            010002550001550040312011604499 SULFATO DE ALUMINIO                                                                                 0010000UN 0000023000000000000000000000000000230000T1700N000000000000000000000000000000000T32
E1500000000000000000001 IF ST200            010002560001560010001170000005 BORRACHA PLASTICA - TK PEQUENA                                                                      0010000UN 0000007000000000000000000000000000070000T1700N000000000000000000000000000000000T32
E1500000000000000000001 IF ST200            010002560001560020001180000002 BORRACHA PLASTICA - TK GRANDE                                                                       0010000UN 0000020000000000000000000000000000200000T1700N000000000000000000000000000000000T32
E1500000000000000000001 IF ST200            010002560001560030001170000005 BORRACHA PLASTICA - TK PEQUENA                                                                      0010000UN 0000007000000000000000000000000000070000T1700N000000000000000000000000000000000T32
E1500000000000000000001 IF ST200            010002560001560040001180000002 BORRACHA PLASTICA - TK GRANDE                                                                       0010000UN 0000020000000000000000000000000000200000T1700N000000000000000000000000000000000T32
E1500000000000000000001 IF ST200            010002570001570011             CANCELAMENTO DE PRE-VENDA                                                                           0001000UN 00000100000000000000000000000000000100N1     N000000000000000000000000000000000T32
E1500000000000000000001 IF ST200            010002580001580011             CANCELAMENTO DE PRE-VENDA                                                                           0001000UN 00000100000000000000000000000000000100N1     N000000000000000000000000000000000T32
E1500000000000000000001 IF ST200            010002600001590011             CANCELAMENTO DE PRE-VENDA                                                                           0001000UN 00000100000000000000000000000000000100N1     N000000000000000000000000000000000T32
E1500000000000000000001 IF ST200            010002720001600011             CANCELAMENTO DE PRE-VENDA                                                                           0001000UN 00000100000000000000000000000000000100N1     N000000000000000000000000000000000T32
E1500000000000000000001 IF ST200            010002740001610011             CANCELAMENTO DE PRE-VENDA                                                                           0001000UN 00000100000000000000000000000000000100N1     N000000000000000000000000000000000T32
E1500000000000000000001 IF ST200            01000281000162001111222333     TESTE DE PRODUTO                                                                                    0001000UN 00010000000000000000000000000000010000N1     N000000000000000000000000000000000T32
E1500000000000000000001 IF ST200            01000281000162002111222333     TESTE DE PRODUTO                                                                                    0001000UN 00010000000000000000000000000000010000N1     S000000000000000000000000000000000T32
E1500000000000000000001 IF ST200            0100028300016300112345         PRODUTO TESTE                                                                                       0001000UN 00000100000000000000000000000000000100N1     N000000000000000000000000000000000T32
E1500000000000000000001 IF ST200            0100028500016400112345         PRODUTO TESTE                                                                                       0001000UN 00000100000000000000000000000000000100N1     N000000000000000000000000000000000T32
E1500000000000000000001 IF ST200            0100028700016500112345         PRODUTO TESTE                                                                                       0001000UN 00261725000000000000000000000000261725N1     N000000000000000000000000000000000T32
E1500000000000000000001 IF ST200            010002900001660010407011150500 FITA P/MAQUINA ELETRICA PERSON                                                                      0001000UN 0000298000000000000000000000000000298000T1700N000000000000000000000000000000000T32
E1500000000000000000001 IF ST200            010002900001660021603041234428 FERRO GALVANIZADO DE 1/2" C/3M                                                                      0002000UN 0001330000000000000000000000000002660000T1700N000000000000000000000000000000000T32
E1500000000000000000001 IF ST200            010002910001670010407011150500 FITA P/MAQUINA ELETRICA PERSON                                                                      0001000UN 0000298000000000000000000000000000298000T1700N000000000000000000000000000000000T32
E1500000000000000000001 IF ST200            010002910001670021603041234428 FERRO GALVANIZADO DE 1/2" C/3M                                                                      0002000UN 0001330000000000000000000000000002660000T1700N000000000000000000000000000000000T32
E1500000000000000000001 IF ST200            010002930001680011603041234428 FERRO GALVANIZADO DE 1/2" C/3M                                                                      0001000UN 0001330000000000000000000000000001330000T1700N000000000000000000000000000000000T32
E1500000000000000000001 IF ST200            010002940001690011603041234428 FERRO GALVANIZADO DE 1/2" C/3M                                                                      0001000UN 0001330000000000000000000000000001330000T1700N000000000000000000000000000000000T32
E1500000000000000000001 IF ST200            010002940001690020507021132142 BUQUE DE ROSAS                                                                                      0002000UN 0000426000000000000000000000000000852000T1700N000000000000000000000000000000000T32
E1500000000000000000001 IF ST200            010002950001700010507021132142 BUQUE DE ROSAS                                                                                      0001000UN 0000426000000000000000000000000000426000T1700N000000000000000000000000000000000T32
E1500000000000000000001 IF ST200            010002960001710010507021132142 BUQUE DE ROSAS                                                                                      0001000UN 0000426000000000000000000000000000426000T1700N000000000000000000000000000000000T32
E1500000000000000000001 IF ST200            010002970001720010507021132142 BUQUE DE ROSAS                                                                                      0001000UN 0000426000000000000000000000000000426000T1700N000000000000000000000000000000000T32
E1500000000000000000001 IF ST200            010002980001730010507021132142 BUQUE DE ROSAS                                                                                      0001000UN 0000426000000000000000000000000000426000T1700N000000000000000000000000000000000T32
E1500000000000000000001 IF ST200            010002980001730020412031129269 GELADEIRA ESCUM                                                                                     0001000UN 0001040000000000000000000000000001040000T1700N000000000000000000000000000000000T32
E1500000000000000000001 IF ST200            010003000001740010507021132142 BUQUE DE ROSAS                                                                                      0001000UN 0000426000000000000000000000000000426000T1700N000000000000000000000000000000000T32
E1500000000000000000001 IF ST200            010003010001750010507021132142 BUQUE DE ROSAS                                                                                      0001000UN 0000426000000000000000000000000000426000T1700N000000000000000000000000000000000T32
E1500000000000000000001 IF ST200            010003030001760010507021132142 BUQUE DE ROSAS                                                                                      0001000UN 0000426000000000000000000000000000426000T1700N000000000000000000000000000000000T32
E1500000000000000000001 IF ST200            010003030001760023008030906467 BOLA DE FUTSAL                                                                                      0001000UN 0000508000000000000000000000000000508000T1700S000000000000000000000000000000000T32
E1500000000000000000001 IF ST200            010003030001760036554564846450 FOGAO  INDUSTRIAL 4 BOCAS C/FO                                                                      0001000UN 0006480000000000000000000000000006480000T1700N000000000000000000000000000000000T32
E1500000000000000000001 IF ST200            010003040001770013011010827133 TECIDO EM HELANCA                                                                                   0010000UN 0000010000000000000000000000000000100000T1700N000000000000000000000000000000000T32
E1500000000000000000001 IF ST200            010003040001770020312011604499 SULFATO DE ALUMINIO                                                                                 0010000UN 0000023000000000000000000000000000230000T1700N000000000000000000000000000000000T32
E1500000000000000000001 IF ST200            010003050001780010001170000005 BORRACHA PLASTICA - TK PEQUENA                                                                      0010000UN 0000007000000000000000000000000000070000T1700N000000000000000000000000000000000T32
E1500000000000000000001 IF ST200            010003050001780020001180000002 BORRACHA PLASTICA - TK GRANDE                                                                       0010000UN 0000020000000000000000000000000000200000T1700N000000000000000000000000000000000T32
E1500000000000000000001 IF ST200            010003060001790013011010827133 TECIDO EM HELANCA                                                                                   0010000UN 0000010000000000000000000000000000100000T1700N000000000000000000000000000000000T32
E1500000000000000000001 IF ST200            010003060001790020312011604499 SULFATO DE ALUMINIO                                                                                 0010000UN 0000023000000000000000000000000000230000T1700N000000000000000000000000000000000T32
E1500000000000000000001 IF ST200            010003060001790030001170000005 BORRACHA PLASTICA - TK PEQUENA                                                                      0010000UN 0000007000000000000000000000000000070000T1700N000000000000000000000000000000000T32
E1500000000000000000001 IF ST200            010003060001790040001180000002 BORRACHA PLASTICA - TK GRANDE                                                                       0010000UN 0000020000000000000000000000000000200000T1700N000000000000000000000000000000000T32
E1500000000000000000001 IF ST200            010003070001800010001170000005 BORRACHA PLASTICA - TK PEQUENA                                                                      0010000UN 0000007000000000000000000000000000070000T1700N000000000000000000000000000000000T32
E1500000000000000000001 IF ST200            010003070001800020001180000002 BORRACHA PLASTICA - TK GRANDE                                                                       0010000UN 0000020000000000000000000000000000200000T1700N000000000000000000000000000000000T32
E1500000000000000000001 IF ST200            010003070001800030001190000009 BORRACHA PLASTICA - TK NEON                                                                         0010000UN 0000015000000000000000000000000000150000T1700N000000000000000000000000000000000T32
E1500000000000000000001 IF ST200            010003070001800040001234567898 FITA PAPEL CREPE                                                                                    0010000UN 0000058000000000000000000000000000580000T1700N000000000000000000000000000000000T32
E1500000000000000000001 IF ST200            010003140001810010507021132142 BUQUE DE ROSAS                                                                                      0001000UN 0000426000000000000000000000000000426000T1700N000000000000000000000000000000000T32
E1500000000000000000001 IF ST200            010003140001810021603041234428 FERRO GALVANIZADO DE 1/2" C/3M                                                                      0001000UN 0001330000000000000000000000000001330000T1700N000000000000000000000000000000000T32
E1500000000000000000001 IF ST200            010003150001820011603041234428 FERRO GALVANIZADO DE 1/2" C/3M                                                                      0001000UN 0001330000000000000000000000000001330000T1700N000000000000000000000000000000000T32
E1500000000000000000001 IF ST200            010003160001830011603041234428 FERRO GALVANIZADO DE 1/2" C/3M                                                                      0001000UN 0001330000000000000000000000000001330000T1700N000000000000000000000000000000000T32
E1500000000000000000001 IF ST200            010003170001840011603041234428 FERRO GALVANIZADO DE 1/2" C/3M                                                                      0001000UN 0001330000000000000000000000000001330000T1700N000000000000000000000000000000000T32
E1500000000000000000001 IF ST200            010003180001850011603041234428 FERRO GALVANIZADO DE 1/2" C/3M                                                                      0001000UN 0001330000000000000000000000000001330000T1700N000000000000000000000000000000000T32
E1500000000000000000001 IF ST200            010003190001860011603041234428 FERRO GALVANIZADO DE 1/2" C/3M                                                                      0001000UN 0001330000000000000000000000000001330000T1700N000000000000000000000000000000000T32
E1500000000000000000001 IF ST200            010003200001870011603041234428 FERRO GALVANIZADO DE 1/2" C/3M                                                                      0001000UN 0001330000000000000000000000000001330000T1700N000000000000000000000000000000000T32
E1500000000000000000001 IF ST200            010003210001880011603041234428 FERRO GALVANIZADO DE 1/2" C/3M                                                                      0001000UN 0001330000000000000000000000000001330000T1700N000000000000000000000000000000000T32
E1500000000000000000001 IF ST200            010003220001890011603041234428 FERRO GALVANIZADO DE 1/2" C/3M                                                                      0001000UN 0001330000000000000000000000000001330000T1700N000000000000000000000000000000000T32
E1500000000000000000001 IF ST200            010003220001890020507021132142 BUQUE DE ROSAS                                                                                      0001000UN 0000426000000000000000000000000000426000T1700N000000000000000000000000000000000T32
E1500000000000000000001 IF ST200            010003220001890032509021501148 FOLHA DE PENTA GAMA                                                                                 0001000UN 0000040000000000000000000000000000040000T1700N000000000000000000000000000000000T32
E1500000000000000000001 IF ST200            010003220001890042401041227476 BOLA DE BASQUETE                                                                                    0001000UN 0002100000000000000000000000000002100000T1700S000000000000000000000000000000000T32
E1500000000000000000001 IF ST200            010003220001890052504031743397 GELADEIRA  280 LTS                                                                                  0001000UN 0011230000000000000000000000000011230000T1700N000000000000000000000000000000000T32
E1500000000000000000001 IF ST200            010003250001900012509021501148 FOLHA DE PENTA GAMA                                                                                 0001000UN 0000040000000000000000000000000000040000T1700N000000000000000000000000000000000T32
E1500000000000000000001 IF ST200            010003260001910012509021501148 FOLHA DE PENTA GAMA                                                                                 0001000UN 0000040000000000000000000000000000040000T1700N000000000000000000000000000000000T32
E1500000000000000000001 IF ST200            010003260001910022608021532487 PELE GROSSA 2/14                                                                                    0003000UN 0000210000000000000000000000000000630000T1700N000000000000000000000000000000000T32
E1500000000000000000001 IF ST200            010003260001910032106021651318 MICROSCOPIO                                                                                         0001000UN 0026175000000000000000000000000026175000T1700S000000000000000000000000000000000T32
E1500000000000000000001 IF ST200            010003260001910041603041234428 FERRO GALVANIZADO DE 1/2" C/3M                                                                      0001000UN 0001330000000000000000000000000001330000T1700N000000000000000000000000000000000T32
E1500000000000000000001 IF ST200            010003260001910052401041227476 BOLA DE BASQUETE                                                                                    0001000UN 0002100000000000000000000000000002100000T1700N000000000000000000000000000000000T32
E1500000000000000000001 IF ST200            010003260001910062504031743397 GELADEIRA  280 LTS                                                                                  0001000UN 0011230000000000000000000000000011230000T1700N000000000000000000000000000000000T32
E1500000000000000000001 IF ST200            010003280001920011603041234428 FERRO GALVANIZADO DE 1/2" C/3M                                                                      0001000UN 0001330000000000000000000000000001330000T1700N000000000000000000000000000000000T32
E1500000000000000000001 IF ST200            010003290001930011603041234428 FERRO GALVANIZADO DE 1/2" C/3M                                                                      0001000UN 0001330000000000000000000000000001330000T1700N000000000000000000000000000000000T32
E1500000000000000000001 IF ST200            010003300001940011603041234428 FERRO GALVANIZADO DE 1/2" C/3M                                                                      0001000UN 0001330000000000000000000000000001330000T1700N000000000000000000000000000000000T32
E1500000000000000000001 IF ST200            010003310001950011603041234428 FERRO GALVANIZADO DE 1/2" C/3M                                                                      0001000UN 0001330000000000000000000000000001330000T1700N000000000000000000000000000000000T32
E1500000000000000000001 IF ST200            010003330001960013011010827133 TECIDO EM HELANCA                                                                                   0010000UN 0000010000000000000000000000000000100000T1700N000000000000000000000000000000000T32
E1500000000000000000001 IF ST200            010003330001960020312011604499 SULFATO DE ALUMINIO                                                                                 0010000UN 0000023000000000000000000000000000230000T1700N000000000000000000000000000000000T32
E1500000000000000000001 IF ST200            010003340001970010001170000005 BORRACHA PLASTICA - TK PEQUENA                                                                      0010000UN 0000007000000000000000000000000000070000T1700N000000000000000000000000000000000T32
E1500000000000000000001 IF ST200            010003340001970020001180000002 BORRACHA PLASTICA - TK GRANDE                                                                       0010000UN 0000020000000000000000000000000000200000T1700N000000000000000000000000000000000T32
E1500000000000000000001 IF ST200            010003350001980013011010827133 TECIDO EM HELANCA                                                                                   0010000UN 0000010000000000000000000000000000100000T1700N000000000000000000000000000000000T32
E1500000000000000000001 IF ST200            010003350001980020312011604499 SULFATO DE ALUMINIO                                                                                 0010000UN 0000023000000000000000000000000000230000T1700N000000000000000000000000000000000T32
E1500000000000000000001 IF ST200            010003350001980030001170000005 BORRACHA PLASTICA - TK PEQUENA                                                                      0010000UN 0000007000000000000000000000000000070000T1700N000000000000000000000000000000000T32
E1500000000000000000001 IF ST200            010003350001980040001180000002 BORRACHA PLASTICA - TK GRANDE                                                                       0010000UN 0000020000000000000000000000000000200000T1700N000000000000000000000000000000000T32
E1500000000000000000001 IF ST200            010003360001990010001170000005 BORRACHA PLASTICA - TK PEQUENA                                                                      0010000UN 0000007000000000000000000000000000070000T1700N000000000000000000000000000000000T32
E1500000000000000000001 IF ST200            010003360001990020001180000002 BORRACHA PLASTICA - TK GRANDE                                                                       0010000UN 0000020000000000000000000000000000200000T1700N000000000000000000000000000000000T32
E1500000000000000000001 IF ST200            010003360001990030001190000009 BORRACHA PLASTICA - TK NEON                                                                         0010000UN 0000015000000000000000000000000000150000T1700N000000000000000000000000000000000T32
E1500000000000000000001 IF ST200            010003360001990040001234567898 FITA PAPEL CREPE                                                                                    0010000UN 0000058000000000000000000000000000580000T1700N000000000000000000000000000000000T32
E1600000000000000000001 IF ST200            010001460000180000000000000000LX20100924124242
E1600000000000000000001 IF ST200            010001500000180000100000000000RG20100924125639
E1600000000000000000001 IF ST200            010001520000180000110000000000RG20100924125908
E1600000000000000000001 IF ST200            010001540000180000120000000000RG20100924130115
E1600000000000000000001 IF ST200            010001560000190000000001000000CC20100924130247
E1600000000000000000001 IF ST200            010001630000200000000002000000CC20100924135803
E1600000000000000000001 IF ST200            010001650000210000000003000000CC20100924143821
E1600000000000000000001 IF ST200            010001670000220000000004000000CC20100924143932
E1600000000000000000001 IF ST200            010001690000230000000005000000CC20100924144141
E1600000000000000000001 IF ST200            010001700000230000130000000000RG20100924144514
E1600000000000000000001 IF ST200            010001730000240000000006000000CC20100924151854
E1600000000000000000001 IF ST200            010001760000250000000007000000CC20100924152952
E1600000000000000000001 IF ST200            010001790000260000000008000000CC20100924160951
E1600000000000000000001 IF ST200            010001800000270000000009000000CC20100924160957
E1600000000000000000001 IF ST200            010001820000280000000010000000CC20100924162412
E1600000000000000000001 IF ST200            010002060000290000000011000000CC20100924194354
E1600000000000000000001 IF ST200            010002120000290000000000000010RZ20100925133356
E1600000000000000000001 IF ST200            010002130000290000000000000000LX20100925133415
E1600000000000000000001 IF ST200            010002150000300000000001000000CC20100925133611
E1600000000000000000001 IF ST200            010002170000310000000002000000CC20100925133839
E1600000000000000000001 IF ST200            010002190000320000000003000000CC20100925135233
E1600000000000000000001 IF ST200            010002200000330000000004000000CC20100925135239
E1600000000000000000001 IF ST200            010002220000340000000005000000CC20100925141950
E1600000000000000000001 IF ST200            010002240000350000000006000000CC20100925142246
E1600000000000000000001 IF ST200            010002290000360000000007000000CC20100925143506
E1600000000000000000001 IF ST200            010002330000370000000008000000CC20100925144123
E1600000000000000000001 IF ST200            010002350000370000140000000000RG20100925144517
E1600000000000000000001 IF ST200            010002370000380000000009000000CC20100925144741
E1600000000000000000001 IF ST200            010002390000390000000010000000CC20100925144957
E1600000000000000000001 IF ST200            010002410000400000000011000000CC20100925145134
E1600000000000000000001 IF ST200            010002420000410000000012000000CC20100925145141
E1600000000000000000001 IF ST200            010002440000420000000013000000CC20100925145329
E1600000000000000000001 IF ST200            010002450000430000000014000000CC20100925145336
E1600000000000000000001 IF ST200            010002460000430000000000000011RZ20100926110749
E1600000000000000000001 IF ST200            010002620000430000000000000012RZ20100926134219
E1600000000000000000001 IF ST200            010002630000430000000000000000LX20100926134244
E1600000000000000000001 IF ST200            010002640000430000000000000000LX20100926141045
E1600000000000000000001 IF ST200            010002650000430000150000000000RG20100926141830
E1600000000000000000001 IF ST200            010002660000430000160000000000RG20100927131248
E1600000000000000000001 IF ST200            010002670000430000000000000013RZ20100927131651
E1600000000000000000001 IF ST200            010002680000430000000000000000LX20100927131708
E1600000000000000000001 IF ST200            010002690000430000170000000000RG20100927131945
E1600000000000000000001 IF ST200            010002700000430000180000000000RG20100927132803
E1600000000000000000001 IF ST200            010002710000430000190000000000RG20100927133327
E1600000000000000000001 IF ST200            010002760000430000000000000014RZ20100928012818
E1600000000000000000001 IF ST200            010002770000430000000000000000LX20100928013243
E1600000000000000000001 IF ST200            010002780000430000000000000000LX20100928013317
E1600000000000000000001 IF ST200            010002790000430000000000000000LX20100928115650
E1600000000000000000001 IF ST200            010002800000430000000000000000LX20100928122213
E1600000000000000000001 IF ST200            010002820000430000000000000000LX20100930033457
E1600000000000000000001 IF ST200            010002840000430000000000000000LX20100930040040
E1600000000000000000001 IF ST200            010002860000440000000001000000CC20100930040321
E1600000000000000000001 IF ST200            010002880000450000000002000000CC20100930040722
E1600000000000000000001 IF ST200            010002890000450000000000000000LX20100930041617
E1600000000000000000001 IF ST200            010002920000450000000000000000LX20100930042416
E1600000000000000000001 IF ST200            010002990000460000000003000000CC20100930043455
E1600000000000000000001 IF ST200            010003080000470000000000000000LX20100930044814
E1600000000000000000001 IF ST200            010003090000470000000000000000MF20100930044849
E1600000000000000000001 IF ST200            010003100000470000200000000000RG20100930045216
E1600000000000000000001 IF ST200            010003110000470000000000000000LX20100930045302
E1600000000000000000001 IF ST200            010003120000470000210000000000RG20100930045401
E1600000000000000000001 IF ST200            010003130000470000220000000000RG20100930045436
E1600000000000000000001 IF ST200            010003230000480000000004000000CC20100930200647
E1600000000000000000001 IF ST200            010003270000500000000005000000CC20100930201714
E1600000000000000000001 IF ST200            010003370000510000000000000000LX20100930202433
E1600000000000000000001 IF ST200            010003380000510000000000000000MF20100930202543
E1700000000000000000001 IF ST200            01000010Sangria        0000000000000
E1700000000000000000001 IF ST200            01000010Numerário      0000000000000
E1700000000000000000001 IF ST200            01000010Boletos        0000000000000
E1700000000000000000001 IF ST200            01000010Carnês         0000000000000
E1700000000000000000001 IF ST200            01000010Consumo        0000000000000
E1700000000000000000001 IF ST200            01000011Sangria        0000000000000
E1700000000000000000001 IF ST200            01000011Numerário      0000000000000
E1700000000000000000001 IF ST200            01000011Boletos        0000000000000
E1700000000000000000001 IF ST200            01000011Carnês         0000000000000
E1700000000000000000001 IF ST200            01000011Consumo        0000000000000
E1700000000000000000001 IF ST200            01000012Sangria        0000000000000
E1700000000000000000001 IF ST200            01000012Numerário      0000000000000
E1700000000000000000001 IF ST200            01000012Boletos        0000000000000
E1700000000000000000001 IF ST200            01000012Carnês         0000000000000
E1700000000000000000001 IF ST200            01000012Consumo        0000000000000
E1700000000000000000001 IF ST200            01000013Sangria        0000000000000
E1700000000000000000001 IF ST200            01000013Numerário      0000000000000
E1700000000000000000001 IF ST200            01000013Boletos        0000000000000
E1700000000000000000001 IF ST200            01000013Carnês         0000000000000
E1700000000000000000001 IF ST200            01000013Consumo        0000000000000
E1700000000000000000001 IF ST200            01000014Sangria        0000000000000
E1700000000000000000001 IF ST200            01000014Numerário      0000000000000
E1700000000000000000001 IF ST200            01000014Boletos        0000000000000
E1700000000000000000001 IF ST200            01000014Carnês         0000000000000
E1700000000000000000001 IF ST200            01000014Consumo        0000000000000
E1800000000000000000001 IF ST200            01000010Dinheiro       0000000148650
E1800000000000000000001 IF ST200            01000010C. Débito      0000000942300
E1800000000000000000001 IF ST200            01000010C. Crédito     0000000005100
E1800000000000000000001 IF ST200            01000010Cheque         0000000000000
E1800000000000000000001 IF ST200            01000010Ticket         0000000000000
E1800000000000000000001 IF ST200            01000010Contra-Vale    0000000000000
E1800000000000000000001 IF ST200            01000010Outro          0000000000000
E1800000000000000000001 IF ST200            01000010TROCO          0000000018600
E1800000000000000000001 IF ST200            01000011Dinheiro       0000000012100
E1800000000000000000001 IF ST200            01000011C. Débito      0000000013820
E1800000000000000000001 IF ST200            01000011C. Crédito     0000000002700
E1800000000000000000001 IF ST200            01000011Cheque         0000000000100
E1800000000000000000001 IF ST200            01000011Ticket         0000000000100
E1800000000000000000001 IF ST200            01000011Contra-Vale    0000000000100
E1800000000000000000001 IF ST200            01000011Outro          0000000000000
E1800000000000000000001 IF ST200            01000011TROCO          0000000003040
E1800000000000000000001 IF ST200            01000012Dinheiro       0000000041000
E1800000000000000000001 IF ST200            01000012C. Débito      0000000000000
E1800000000000000000001 IF ST200            01000012C. Crédito     0000000000000
E1800000000000000000001 IF ST200            01000012Cheque         0000000000000
E1800000000000000000001 IF ST200            01000012Ticket         0000000000000
E1800000000000000000001 IF ST200            01000012Contra-Vale    0000000000000
E1800000000000000000001 IF ST200            01000012Outro          0000000000000
E1800000000000000000001 IF ST200            01000012TROCO          0000000006200
E1800000000000000000001 IF ST200            01000013Dinheiro       0000000000000
E1800000000000000000001 IF ST200            01000013C. Débito      0000000000000
E1800000000000000000001 IF ST200            01000013C. Crédito     0000000000000
E1800000000000000000001 IF ST200            01000013Cheque         0000000000000
E1800000000000000000001 IF ST200            01000013Ticket         0000000000000
E1800000000000000000001 IF ST200            01000013Contra-Vale    0000000000000
E1800000000000000000001 IF ST200            01000013Outro          0000000000000
E1800000000000000000001 IF ST200            01000013TROCO          0000000000000
E1800000000000000000001 IF ST200            01000014Dinheiro       0000000000000
E1800000000000000000001 IF ST200            01000014C. Débito      0000000000000
E1800000000000000000001 IF ST200            01000014C. Crédito     0000000000000
E1800000000000000000001 IF ST200            01000014Cheque         0000000000000
E1800000000000000000001 IF ST200            01000014Ticket         0000000000000
E1800000000000000000001 IF ST200            01000014Contra-Vale    0000000000000
E1800000000000000000001 IF ST200            01000014Outro          0000000000000
E1800000000000000000001 IF ST200            01000014TROCO          0000000000000
E1900000000000000000001 IF ST200            0100030200004720100930000000000200000000000000000V0000000000000V00000000020000N0000000000000                                         00000000000000
E1900000000000000000001 IF ST200            0100032400004920100930000000000050000000000000000V0000000000000V00000000005000N0000000000000                                         00000000000000
E1900000000000000000001 IF ST200            0100033200005120100930000000000100000000000000000V0000000000000V00000000010000N0000000000000                                         00000000000000
E2000000000000000000001 IF ST200            01000302000047001Sangria        0000000020000000000000000000000000000000000000020000N0000000000000
E2000000000000000000001 IF ST200            01000324000049001Sangria        0000000005000000000000000000000000000000000000005000N0000000000000
E2000000000000000000001 IF ST200            01000332000051001Sangria        0000000010000000000000000000000000000000000000010000N0000000000000
E2100000000000000000001 IF ST200            01000147000080000000C. Débito      0000000261750N0000000000000
E2100000000000000000001 IF ST200            01000148000081000000C. Débito      0000000261750N0000000000000
E2100000000000000000001 IF ST200            01000149000082000000C. Débito      0000000061750S0000000061750
E2100000000000000000001 IF ST200            01000151000083000000C. Débito      0000000000100S0000000000100
E2100000000000000000001 IF ST200            01000153000084000000C. Débito      0000000100000S0000000100000
E2100000000000000000001 IF ST200            01000155000085000000C. Débito      0000000200000N0000000000000
E2100000000000000000001 IF ST200            01000158000087000000C. Débito      0000000200000S0000000200000
E2100000000000000000001 IF ST200            01000159000088000000C. Débito      0000000000100N0000000000000
E2100000000000000000001 IF ST200            01000160000089000000C. Débito      0000000100000S0000000100000
E2100000000000000000001 IF ST200            01000161000090000000C. Débito      0000000000100S0000000000100
E2100000000000000000001 IF ST200            01000162000091000000C. Débito      0000000000100N0000000000000
E2100000000000000000001 IF ST200            01000164000092000000C. Débito      0000000010000N0000000000000
E2100000000000000000001 IF ST200            01000166000093000000C. Débito      0000000000300N0000000000000
E2100000000000000000001 IF ST200            01000168000094000000C. Débito      0000000000200N0000000000000
E2100000000000000000001 IF ST200            01000171000095000000Dinheiro       0000000000150N0000000000000
E2100000000000000000001 IF ST200            01000172000096000000Dinheiro       0000000000100N0000000000000
E2100000000000000000001 IF ST200            01000172000096000000C. Débito      0000000000100N0000000000000
E2100000000000000000001 IF ST200            01000175000098000000Dinheiro       0000000000050N0000000000000
E2100000000000000000001 IF ST200            01000175000098000000C. Crédito     0000000000100N0000000000000
E2100000000000000000001 IF ST200            01000177000099000000Dinheiro       0000000000200N0000000000000
E2100000000000000000001 IF ST200            01000178000100000000Dinheiro       0000000002000N0000000000000
E2100000000000000000001 IF ST200            01000178000100000000C. Débito      0000000005000N0000000000000
E2100000000000000000001 IF ST200            01000178000100000000C. Crédito     0000000005000N0000000000000
E2100000000000000000001 IF ST200            01000181000101000000Dinheiro       0000000098150N0000000000000
E2100000000000000000001 IF ST200            01000181000101000000C. Débito      0000000200000N0000000000000
E2100000000000000000001 IF ST200            01000192000111000000Dinheiro       0000000005000N0000000000000
E2100000000000000000001 IF ST200            01000194000113000000Dinheiro       0000000005000N0000000000000
E2100000000000000000001 IF ST200            01000195000114000000Dinheiro       0000000005000N0000000000000
E2100000000000000000001 IF ST200            01000196000115000000Dinheiro       0000000005000N0000000000000
E2100000000000000000001 IF ST200            01000198000117000000Dinheiro       0000000005000N0000000000000
E2100000000000000000001 IF ST200            01000205000124000000C. Débito      0000000003000N0000000000000
E2100000000000000000001 IF ST200            01000207000125000000Dinheiro       0000000005000N0000000000000
E2100000000000000000001 IF ST200            01000208000126000000Dinheiro       0000000005000N0000000000000
E2100000000000000000001 IF ST200            01000209000127000000Dinheiro       0000000005000N0000000000000
E2100000000000000000001 IF ST200            01000210000128000000Dinheiro       0000000005000N0000000000000
E2100000000000000000001 IF ST200            01000211000129000000Dinheiro       0000000003000N0000000000000
E2100000000000000000001 IF ST200            01000214000130000000Dinheiro       0000000000980N0000000000000
E2100000000000000000001 IF ST200            01000214000130000000C. Débito      0000000002000N0000000000000
E2100000000000000000001 IF ST200            01000216000131000000Dinheiro       0000000000980N0000000000000
E2100000000000000000001 IF ST200            01000216000131000000C. Débito      0000000002000N0000000000000
E2100000000000000000001 IF ST200            01000218000132000000C. Débito      0000000000980N0000000000000
E2100000000000000000001 IF ST200            01000218000132000000C. Crédito     0000000002000N0000000000000
E2100000000000000000001 IF ST200            01000221000133000000C. Débito      0000000002980N0000000000000
E2100000000000000000001 IF ST200            01000223000134000000Dinheiro       0000000000980N0000000000000
E2100000000000000000001 IF ST200            01000223000134000000C. Débito      0000000002000N0000000000000
E2100000000000000000001 IF ST200            01000225000135000000Dinheiro       0000000005000N0000000000000
E2100000000000000000001 IF ST200            01000226000136000000Dinheiro       0000000004000N0000000000000
E2100000000000000000001 IF ST200            01000228000138000000C. Débito      0000000002980N0000000000000
E2100000000000000000001 IF ST200            01000232000141000000C. Débito      0000000000100N0000000000000
E2100000000000000000001 IF ST200            01000236000143000000C. Crédito     0000000000200N0000000000000
E2100000000000000000001 IF ST200            01000238000144000000Dinheiro       0000000000080N0000000000000
E2100000000000000000001 IF ST200            01000238000144000000C. Débito      0000000000500N0000000000000
E2100000000000000000001 IF ST200            01000240000145000000C. Débito      0000000000180N0000000000000
E2100000000000000000001 IF ST200            01000240000145000000C. Crédito     0000000000400N0000000000000
E2100000000000000000001 IF ST200            01000243000146000000Dinheiro       0000000000080N0000000000000
E2100000000000000000001 IF ST200            01000243000146000000Cheque         0000000000100N0000000000000
E2100000000000000000001 IF ST200            01000243000146000000Ticket         0000000000100N0000000000000
E2100000000000000000001 IF ST200            01000243000146000000Contra-Vale    0000000000100N0000000000000
E2100000000000000000001 IF ST200            01000243000146000000C. Débito      0000000000100N0000000000000
E2100000000000000000001 IF ST200            01000243000146000000C. Crédito     0000000000100N0000000000000
E2100000000000000000001 IF ST200            01000251000151000000Dinheiro       0000000006000N0000000000000
E2100000000000000000001 IF ST200            01000252000152000000Dinheiro       0000000006000N0000000000000
E2100000000000000000001 IF ST200            01000253000153000000Dinheiro       0000000006000N0000000000000
E2100000000000000000001 IF ST200            01000254000154000000Dinheiro       0000000010000N0000000000000
E2100000000000000000001 IF ST200            01000255000155000000Dinheiro       0000000007000N0000000000000
E2100000000000000000001 IF ST200            01000256000156000000Dinheiro       0000000006000N0000000000000
E2100000000000000000001 IF ST200            01000258000158000000Dinheiro       0000000000100S0000000000100
E2100000000000000000001 IF ST200            01000260000159000000Dinheiro       0000000000100S0000000000100
E2100000000000000000001 IF ST200            01000272000160000000Dinheiro       0000000000100S0000000000100
E2100000000000000000001 IF ST200            01000274000161000000Dinheiro       0000000000100S0000000000100
E2100000000000000000001 IF ST200            01000283000163000000Dinheiro       0000000001000N0000000000000
E2100000000000000000001 IF ST200            01000285000164000000C. Débito      0000000000100N0000000000000
E2100000000000000000001 IF ST200            01000287000165000000C. Débito      0000000261725N0000000000000
E2100000000000000000001 IF ST200            01000291000167000000Dinheiro       0000000030000N0000000000000
E2100000000000000000001 IF ST200            01000294000169000000Dinheiro       0000000030000N0000000000000
E2100000000000000000001 IF ST200            01000295000170000000Dinheiro       0000000005000N0000000000000
E2100000000000000000001 IF ST200            01000296000171000000Dinheiro       0000000010000N0000000000000
E2100000000000000000001 IF ST200            01000297000172000000Dinheiro       0000000000260N0000000000000
E2100000000000000000001 IF ST200            01000297000172000000Cheque         0000000004000N0000000000000
E2100000000000000000001 IF ST200            01000298000173000000C. Crédito     0000000010000N0000000000000
E2100000000000000000001 IF ST200            01000300000174000000Dinheiro       0000000005000N0000000000000
E2100000000000000000001 IF ST200            01000301000175000000Dinheiro       0000000005000N0000000000000
E2100000000000000000001 IF ST200            01000304000177000000Dinheiro       0000000005000N0000000000000
E2100000000000000000001 IF ST200            01000305000178000000Dinheiro       0000000003000N0000000000000
E2100000000000000000001 IF ST200            01000306000179000000Dinheiro       0000000006000N0000000000000
E2100000000000000000001 IF ST200            01000307000180000000Dinheiro       0000000010000N0000000000000
E2100000000000000000001 IF ST200            01000315000182000000Dinheiro       0000000015000N0000000000000
E2100000000000000000001 IF ST200            01000317000184000000Dinheiro       0000000015000N0000000000000
E2100000000000000000001 IF ST200            01000318000185000000Dinheiro       0000000015000N0000000000000
E2100000000000000000001 IF ST200            01000319000186000000Dinheiro       0000000020000N0000000000000
E2100000000000000000001 IF ST200            01000320000187000000Dinheiro       0000000010000N0000000000000
E2100000000000000000001 IF ST200            01000321000188000000Dinheiro       0000000010000N0000000000000
E2100000000000000000001 IF ST200            01000321000188000000Cheque         0000000002000N0000000000000
E2100000000000000000001 IF ST200            01000322000189000000C. Crédito     0000000130260N0000000000000
E2100000000000000000001 IF ST200            01000325000190000000Dinheiro       0000000001000N0000000000000
E2100000000000000000001 IF ST200            01000326000191000000C. Crédito     0000000153300N0000000000000
E2100000000000000000001 IF ST200            01000328000192000000Dinheiro       0000000005000N0000000000000
E2100000000000000000001 IF ST200            01000328000192000000Cheque         0000000005000N0000000000000
E2100000000000000000001 IF ST200            01000329000193000000Dinheiro       0000000015000N0000000000000
E2100000000000000000001 IF ST200            01000330000194000000Dinheiro       0000000013000N0000000000000
E2100000000000000000001 IF ST200            01000331000195000000Dinheiro       0000000015000N0000000000000
E2100000000000000000001 IF ST200            01000335000198000000Dinheiro       0000000010000N0000000000000
E2100000000000000000001 IF ST200            01000336000199000000Dinheiro       0000000010000N0000000000000
EAD9509208657BCE87ECDE662BB09EFB98228F0210F2BE20CE914E232CE3DC48BF4388BD945E221C7668D1F98D6B8CCF204DB5018BF7F836243056F2F11FF72567A644880D45CEEEFF85F5EF9093B95349F3A73DA7FD7BC947C7C56CE30B0D4616408D20428C2268F8893580B632C94FC59CD2F50002A27F67B08F9A6A5AF2DB4F9EAD9483A439B1B91F2FFC372E7ADC3E0770CF66E2572F0EB10C2AAA407EA6718F14A4D15FCE1F21C2C0B6CE4FFF6622C7B46F7462D8E0D9C479FCD6A4254AA843BCBF9FB69063F8EB9660B122342B882CD2955D77FF079BB2146FDAEC9B34FD8D0BF5BC4CC84A5EB9B54CD3E87465844FB12C6A6A9D11962F347EFAC935915FB162EAD77D0D6DF1D76C104227C6EF45FC773C2F665AF62DB98F5235F57242A2C3E7CDB2F5210CD9CA513E69D64DC2A45A86F4685F5AC0B50A7B4F0352CF44B86FE34D6AB05E47B0B716FF4E65A77537D9111744CDD77404A3FCE0AFA0F368C05FF6F7E311956DF5849D6B13D2DE6C4B34C0D1A360C0028853555A5ED358FEF8A41A3CA