10107931180001780751990400114 T2Ti                               BRASILIA                      DF61304252772011010120110131331
11AGUAS CLARAS                      00004                      AGUAS CLARAS-DF71000000ALBERT EIJE                 006130425277
60M20110124000000000000000000010012D00003100003100000500200000000000000000000000000141150                                     
60A201101240000000000000000000117  000000000000                                                                               
60A20110124000000000000000000015   000000000000                                                                               
60A20110124000000000000000000017   000000000000                                                                               
60A201101240000000000000000000110  000000000000                                                                               
60A201101240000000000000000000112  000000000000                                                                               
60D20110124000000000000000000010001234567898 00000000030000000000000001740000000000000174017000000000000295                   
60M20110126000000000000000000010012D00003100003200000500200000000000190300000000000160180                                     
60A201101260000000000000000000117  000000000000                                                                               
60A20110126000000000000000000015   000000000000                                                                               
60A20110126000000000000000000017   000000000000                                                                               
60A201101260000000000000000000110  000000000000                                                                               
60A201101260000000000000000000112  000000000000                                                                               
60M20110127000000000000000000010012D00003400004700000600200000000000005800000000000160760                                     
60A201101270000000000000000000117  000000000580                                                                               
60A20110127000000000000000000015   000000000000                                                                               
60A20110127000000000000000000017   000000000000                                                                               
60A201101270000000000000000000110  000000000000                                                                               
60A201101270000000000000000000112  000000000000                                                                               
60R0120110001234567898 0000000003000000000000000174000000000000017401700                                                      
7520110101201101310001234567898         FITA PAPEL CREPE                                     UND   000000000000000000000000000
90107931180001780751990400114 60000000207500000001                                                                           2
90107931180001780751990400114 9900000025                                                                                     2
